:020000040800F2
:1000000018040020010100085F0A0008CD0900085B
:100010005D0A00086D010008AD0A0008000000003C
:10002000000000000000000000000000630A00085B
:100030006F01000800000000610A0008650A00085E
:100040001B0100081B0100081B0100081B01000820
:100050001B0100081B0100081B0100081B01000810
:100060001B0100081B0100081B0100081B01000800
:100070001B0100081B0100081B0100081B010008F0
:100080001B0100081B0100081B0100081B010008E0
:100090001B0100081B0100081B010008710100087A
:1000A0001B0100081B0100081B0100081B010008C0
:1000B0001B0100081B010008000000001B010008D4
:1000C0001B01000800000000000000001B010008E8
:1000D000000000001B0100081B01000800000000D8
:1000E0001B0100081B0100081B010008DFF80CD0F1
:1000F00000F02AF800480047050E00081804002008
:100100000648804706480047FEE7FEE7FEE7FEE7B1
:10011000FEE7FEE7FEE7FEE7FEE7FEE7AB0A0008C4
:10012000ED000008D2B201E000F8012B491EFBD21D
:1001300070470022F6E710B513460A4604461946F2
:10014000FFF7F0FF204610BD064C074D06E0E068C3
:1001500040F0010394E8070098471034AC42F6D30E
:10016000FFF7C8FFFC0F00081C100008FEE77047EF
:100170004FF4007000F022B870B5044600F018F992
:100180000546601C02D004480078044400F010F9D1
:10019000401BA042FAD370BD04000020B0F5007FE0
:1001A00008D105480178491CC9B20170052901D957
:1001B000002101707047000000000020044910B5C4
:1001C0000A68024202D00860FFF7E8FF10BD000095
:1001D000140401402DE9F84FDFF89C91002409F147
:1001E000040A0AF1040B23460F270BF1040EBBE0AF
:1001F0000125A5402A40AA4276D1DFF880C14E6889
:10020000A6EB0C0866452BD00DDC032E34D005DCA4
:1002100036B3012E19D0022E2FD11BE0112E16D08D
:10022000122E2AD119E0B8F5881F19D006DCB8F5CE
:10023000803F15D0B8F5801F1FD111E0B8F5001F21
:100240000ED0B8F5041F18D10AE0CB6815E0CB68D2
:100250001B1D12E0CB6808330FE0CB680C330CE0B9
:100260008B682BB1012B4FF0080303D0456104E0EC
:10027000042302E0056100E00023FF2A01D80646BE
:1002800001E000F104064FEA840501D9A5F120053B
:10029000D6F8008007FA05FC28EA0C0803FA05F5F1
:1002A00048EA0508C6F800804D68ED005BD5344D7E
:1002B000AE6946F00106AE61AD6924F0030605F0B3
:1002C000010500952F4D06EB050CDCF80850A6073C
:1002D000360F07FA06F825EA0805DFF8AC80404536
:1002E00003D14FF0000810E03DE0DFF8A08040456A
:1002F00002D14FF0010808E0DFF89480404502D1B8
:100300004FF0020801E04FF0030808FA06F848EA47
:100310000508CCF808804D68D9F80060ED034D461B
:1003200001D5164300E096432E604D68DAF8006070
:10033000AD03554601D5164300E096432E604D6847
:10034000DBF80060ED025D4601D5164300E0964300
:100350002E604D68DEF80060AD02754601D516438B
:1003600000E096432E60641C0A6832FA04F57FF4BC
:100370003FAFBDE8F88F00000004014000001110FD
:10038000001002400000014000080140000C014044
:1003900000100140C26821EA02030A4043EA024118
:1003A000016170470AB1016170470904FBE7000071
:1003B00001488068704700000400002002488168FE
:1003C000027811448160704704000020074810B58E
:1003D000016841F010010160032000F075F8002071
:1003E00000F006F800F024F8002010BD00200240C4
:1003F00070B50D4D04464FF47A712878B1FBF0F0DA
:100400000A490968B1FBF0F000F0CCFA48B9102CA9
:1004100007D200222146501E00F036F800206C6002
:1004200070BD012070BD00000400002010000020FD
:100430000C4808B5816941F001018161816901F0D1
:1004400001010091C16941F08051C161C06900F0B2
:10045000805000900448416821F0E06141F0007153
:10046000416008BD0010024000000140002809DB87
:1004700000F01F02012191404009800000F1E020BE
:10048000C0F8001170470000F0B40E4B1B680C461A
:10049000C3F30223C3F10705042D00D90425191D58
:1004A000072901D2002300E0DB1E012606FA05F130
:1004B000491E214099409E40761E16403143F0BCB3
:1004C00000F0F5BA0CED00E0064900F007020868FC
:1004D0004FF6FF03184040EA0220034A1043086029
:1004E000704700000CED00E00000FA052DE9F04730
:1004F0000F46050061D0434E306800F00700B84257
:1005000009D2306820F0070038433060306800F0CE
:100510000700B84251D128683B4C810712D54007EB
:1005200003D5606840F4E06060602878000703D578
:10053000606840F4605060606068A96820F0F00076
:10054000084360602878C00728D06868012810D068
:100550002168022810D0890700292EDA616821F06D
:10056000030101436160FFF723FF804641F28839B0
:100570000DE021688903EFE78901EDE7FFF718FF38
:10058000A0EB0801494502D90320BDE8F087606867
:10059000696800F00C00B0EB810FEFD1306800F01B
:1005A0000700B8420BD9306820F0070038433060AC
:1005B000306800F00700B84201D00120E5E7287854
:1005C000400705D56068E96820F4E0600843606092
:1005D0002878000706D56068296920F4605040EA51
:1005E000C100606000F018F86168084AC1F30311A7
:1005F000515CC8400649086006480068FFF7F8FEED
:100600000020C2E70020024000100240EC0F00086A
:10061000100000200800002012A185B00FC98DE84D
:100620000F0014A0144A006804905168134801F0A8
:100630000C03042B10D0082B0ED1C1F38343C90344
:100640001DF803000AD5516804AAC1F34041515C6A
:100650000A4A5043B0FBF1F005B0704708494843DF
:10066000FAE7000002030405060708090A0B0C0D4F
:100670000E0F1010010200000010024000127A005C
:1006800000093D002DE9F84F040070D02078C04DDE
:10069000C00749D06868C0F38100012807D06868A6
:1006A000C0F38100022809D16868C00306D5286814
:1006B000800339D560680028E7D035E06068B0F580
:1006C000803F0BD010B1B0F5A02F11D0286820F4D6
:1006D00080302860286820F4802002E0286840F4F8
:1006E00080302860606890B1FFF762FE06460AE03D
:1006F000286840F480202860F0E700BFFFF758FE2C
:10070000801B642873D828688003F7D50CE0FFF7B6
:100710004FFE064605E000BFFFF74AFE801B642837
:10072000F0D828688003F7D420789A4E80074FF0DD
:1007300001094FF0000839D5686810F00C0F07D098
:100740006868C0F38100022809D16868C00306D434
:100750002868800714D52069012808D110E0206995
:10076000B0B1C6F80090FFF723FE074605E00AE1A6
:10077000FFF71EFEC01B0228C4D828688007F7D5E3
:100780002868616920F0F80040EAC10028600DE0A7
:10079000C6F80080FFF70CFE074604E0FFF708FEEE
:1007A000C01B022823D828688007F7D420780007C8
:1007B0002CD57948A169D9B1C0F80090FFF7F8FDB0
:1007C000074604E0FFF7F4FDC01B02280FD8686A53
:1007D0008007F7D571484FF4FA510068B0FBF1F08B
:1007E000009000BF0098411E0091FAD20EE080E018
:1007F000C0F80080FFF7DCFD074604E0FFF7D8FDF6
:10080000C01B022875D8686A8007F7D42078400793
:1008100060D5E8690027C00008D4E86940F080503E
:10082000E861E869012700F0805000905C480168A9
:10083000C90513D40168834641F480710160FFF754
:10084000B7FD824606E000BFFFF7B2FDA0EB0A004D
:1008500064284ED8DBF80000C005F5D5E068012813
:100860000AD008B1052813D0286A20F001002862B8
:10087000286A20F0040002E0286A40F001002862A3
:10088000E06841F2883B98B1FFF792FD82460BE0A9
:10089000286A40F004002862EEE700BFFFF788FDF9
:1008A000A0EB0A0159455AD8286A8007F6D50CE012
:1008B000FFF77EFD824605E0FFF77AFDA0EB0A0117
:1008C00059454CD8286A8007F6D41FB1E86920F052
:1008D0008050E861E06988B36968C1F38101022949
:1008E00044D00228C6F8608004D0FFF761FD0446BA
:1008F00038E034E0FFF75CFD074604E0FFF758FD01
:10090000C01B02282BD828688001F7D4206AB0F5D4
:10091000803F05D16868A16820F400300843686012
:10092000D4E908010843696821F474110843686038
:10093000C6F86090FFF73CFD044606E025E000BFE6
:10094000FFF736FD001B022809D828688001F7D57B
:100950001BE000BFFFF72CFD001B022802D903207B
:10096000BDE8F88F28688001F4D40EE00128F7D0A4
:100970006868226A00F48031914204D1616A00F40F
:100980007010884201D00120EAE70020E8E700006B
:100990000010024000004242800442421000002049
:1009A0000070004010B5401EB0F1807F01D30120DF
:1009B00010BD4FF0E02460610F21601700F077F860
:1009C0000020A06107202061002010BDFEE700008C
:1009D00070B586B000241D480094019402940394DD
:1009E000816941F004018161816901F00401049190
:1009F000816941F0080181618069154E00F00800AD
:100A000040F6FF750490002229463046FFF7CAFCE5
:100A10000220CDE902400095012569460195304646
:100A2000FFF7D8FB680200900A48CDE90105694646
:100A30000948FFF7CFFB002211461720FFF724FDDE
:100A40001720FFF713FD06B070BD00000010024034
:100A50000008014000002110000C0140FEE7704733
:100A600070477047FFF7AABC10B590B028216846C0
:100A7000FFF75FFB14210AA8FFF75BFB0220009041
:100A80000120049010200024059007946846FFF789
:100A9000F9FD0F20CDE90A040C940D9400210AA859
:100AA0000E94FFF723FD10B010BD7047FEE7090755
:100AB000090E002804DB00F1E02080F800147047E4
:100AC00000F00F0000F1E02080F8141D704702E0F4
:100AD00008C8121F08C1002AFAD1704770470020C9
:100AE00001E001C1121F002AFBD1704770B50A4D09
:100AF00040F2FF14012221462846FFF753FCC8208C
:100B0000FFF73AFB002221462846FFF74BFCBDE8E1
:100B10007040C820FFF730BB0008014070B5614C41
:100B200004212046FFF736FCC820FFF725FB0421EF
:100B30002046FFF72FFC02212046FFF72BFCC820A0
:100B4000FFF71AFB02212046FFF724FC0121204673
:100B5000FFF720FCC820FFF70FFB04212046FFF71A
:100B600019FCC820FFF708FB04212046FFF712FC00
:100B700002212046FFF70EFCC820FFF7FDFA0421F2
:100B80002046FFF707FCC820FFF7F6FA2021204691
:100B9000FFF700FCC820FFF7EFFA20212046FFF7FF
:100BA000F9FB10212046FFF7F5FBC820FFF7E4FA18
:100BB00010212046FFF7EEFB08212046FFF7EAFB55
:100BC000C820FFF7D9FA20212046FFF7E3FBC82011
:100BD000FFF7D2FA10212046FFF7DCFB2021204648
:100BE000FFF7D8FBC820FFF7C7FA20212046FFF700
:100BF000D1FBC820FFF7C0FAA51529462046FFF70C
:100C0000C9FBC820FFF7B8FA29462046FFF7C2FB08
:100C100080212046FFF7BEFBC820FFF7ADFA8021F8
:100C20002046FFF7B7FB40212046FFF7B3FBC82063
:100C3000FFF7A2FA29462046FFF7ACFBC820FFF7D2
:100C40009BFA29462046FFF7A5FB80212046FFF7A7
:100C5000A1FBC820FFF790FA29462046FFF79AFB30
:100C6000C820FFF789FA4FF6FF7500222946204673
:100C7000FFF798FBC820FFF77FFA0122294620469C
:100C8000FFF790FB00224FF460612046FFF78AFBDC
:100C9000C820FFF771FA29462046BDE870400022BF
:100CA000FFF780BB0008014070B5254D4FF6FF747B
:100CB000002221462846FFF775FB012240F65551D8
:100CC0002846FFF76FFBC820FFF756FA002221469F
:100CD0002846FFF767FB012240F6BA212846FFF7B6
:100CE00061FBC820FFF748FA002221462846FFF79B
:100CF00059FB012240F255712846FFF753FBC820EB
:100D0000FFF73AFA002221462846FFF74BFBC8209E
:100D1000FFF732FA012221462846FFF743FB002263
:100D20004FF460612846FFF73DFBC820FFF724FA27
:100D300021462846BDE870400022FFF733BB000083
:100D4000000801402DE9F0412D4D4FF6FF740022BF
:100D500021462846FFF726FB012256023146284647
:100D6000FFF720FB0122970239462846FFF71AFBBE
:100D70004FF40068012241462846FFF713FB314635
:100D80002846FFF707FB00F0C7F831462846FFF773
:100D900001FB39462846FFF7FDFA00F0BDF8394659
:100DA0002846FFF7F7FA41462846FFF7F3FA00F026
:100DB000B3F831462846FFF7EDFA39462846FFF7E3
:100DC000E9FA00F0A9F8002221462846FFF7EAFADE
:100DD000C820FFF7D1F9012221462846FFF7E2FAA1
:100DE00000224FF460612846FFF7DCFAC820FFF7C5
:100DF000C3F921462846BDE8F0410022FFF7D2BAE8
:100E0000000801408CB0FFF7E1FAFFF72DFEFFF775
:100E1000DFFD0120ADF80C000220ADF80E0004202B
:100E2000ADF810000820ADF812001020ADF8140045
:100E30002020ADF816004020ADF818008020ADF855
:100E40001A004000ADF81C00400060F30F04834618
:100E5000400060F31F4401904000DFF8B4802D4E45
:100E6000CDF8240098F80000012844D0022845D08D
:100E7000032846D0042847D001985D464BEA00017C
:100E80000998012201433046FFF78CFA00222946D7
:100E90003046FFF787FA00250DF10C0A40F2FF19E2
:100EA00001224F4649463046FFF77CFA0520FFF7FE
:100EB00063F9002239463046FFF774FAA1B20122E5
:100EC0003046FFF76FFA270C002239463046FFF70D
:100ED00069FA3AF8151001223046FFF763FA32201A
:100EE000FFF74AF9012239463046FFF75BFA6D1CDD
:100EF000092DD5DBB6E7FFF7F9FDB3E7FFF70EFEE7
:100F0000B0E7FFF71FFFADE7FFF7CEFEAAE700004F
:100F1000000000200008014070B5334C102120462D
:100F2000FFF738FA01212046FFF734FAC820FFF70F
:100F300023F908212046FFF72DFA01212046FFF76B
:100F400029FAC820FFF718F940212046FFF722FAB6
:100F500008212046FFF71EFAC820FFF70DF94021AF
:100F60002046FFF717FA80212046FFF713FAC82022
:100F7000FFF702F980212046FFF70CFAA515294654
:100F80002046FFF707FAC820FFF7F6F82946204663
:100F9000FFF700FA20212046FFF7FCF9C820FFF7F1
:100FA000EBF820212046FFF7F5F904212046FFF752
:100FB000F1F9C820FFF7E0F802212046FFF7EAF92F
:100FC00004212046FFF7E6F9C820FFF7D5F80221F3
:100FD0002046FFF7DFF9C820FFF7CEF82046BDE82E
:100FE00070401021FFF7D6B9000801400000000052
:100FF0000000000001020304060708091C10000895
:101000000000002014000000CE0A00083010000884
:101010001400002004040000DE0A000800000000A4
:101020000100000010000000000000000024F40097
:04000005080000ED02
:00000001FF
